:100000000EC028C027C026C025C024C023C022C0DF
:1000100021C020C01FC01EC01DC01CC01BC0112499
:100020001FBECFE5D2E0DEBFCDBF10E0A0E6B0E05E
:10003000E4E1F5E002C005900D92A236B107D9F7D0
:1000400021E0A2E6B0E001C01D92A738B207E1F7B7
:1000500061D15EC2D5CFC39A089598E087FF02C0F0
:10006000C09A01C0C098C29A880FB1998160C298A5
:100070009150A1F70895EF92FF920F931F93CF93A2
:10008000DF93C82F142F052FF62EE72E87FF09C008
:1000900040E050E0BA0187E7EEDFD82F8230B8F5B4
:1000A000CF77D9DF8FEFD9DFC3988FEFD6DF8C2FD3
:1000B0008064D3DF8E2DD1DF8F2DCFDF802FCDDF7A
:1000C000812FCBDFC03421F0C83421F081E003C0A0
:1000D00085E901C087E8C1DF1AE08FEFBEDFD82FC6
:1000E00087FD03C0C13521F412C01150B1F7FACF1A
:1000F000CD3469F088EB8C0F833048F08C2F8F7EE5
:100100008A3629F0CB3519F0A6DF8FEFA6DF8D2FC9
:10011000DF91CF911F910F91FF90EF90089520E212
:1001200097FF02C0C49801C0C49A3FEB4AED50E06B
:10013000315040405040E1F700C00000660F771F8B
:10014000881F991F611571058105910511F02150D6
:1001500039F70895CF93DF93109282017CDFCAE0D4
:10016000D0E08FEF7ADF2197E1F7CAE0D0E040E0FE
:1001700050E0BA0180E47FDF813021F02197B9F7A8
:1001800081E045C04AEA51E060E070E088E473DF56
:10019000813039F140E050E0BA018AE76CDF81300C
:1001A000E1F48FEF5ADF8FEF58DF8FEF56DF8FEFDD
:1001B00054DFC0E2DEE440E050E0BA0181E45BDFFE
:1001C000882311F02197B9F740E052E060E070E039
:1001D00080E551DF81E0809382018FEF3EDF80E098
:1001E00016C08FEF3ADF8FEF38DF8FEF36DF8FEFFC
:1001F00034DFC0E2DEE440E050E060E070E489EE2D
:100200003ADF882311F02197B1F782E0E4CFDF9144
:10021000CF910895EF92FF921F93CF93DF93C2E7A0
:10022000D1E082E8E82E81E0F82EFE01119281E013
:10023000E238F807D9F740E050E0BA0189E41BDF63
:1002400014E68FEF0ADF8F3F19F41150D1F70CC07D
:100250008E3F51F48FEF01DF8993EC16FD06D1F745
:100260008FEFFBDE80E001C083E0DF91CF911F9133
:10027000FF90EF9008956EDF882331F060E070E02A
:1002800080E090EA4CDFF7CFC5DF882331F060E0F3
:1002900070E080E095EA43DFF7CF08959091800108
:1002A00080916000892329F060E070E080E090E8B0
:1002B00003C060E070E0CB0132CFC49ABC98C49A0E
:1002C00086B38295817091E08927BC9A2091800144
:1002D00090916000922309F0C4980895CF93DF9322
:1002E000C82FEBDFD82F8C1711F080E010C0C5E0CD
:1002F0002FEF80E792E0215080409040E1F700C06E
:100300000000DBDFD813F1CFC15091F781E0DF911E
:10031000CF91089581E0E2DF882309F458C080E29C
:100320008093600083E090E0C4982FEF32E547E0CF
:10033000215030404040E1F700C00000C49AAFEFC8
:10034000B2E5E7E0A150B040E040E1F700C00000B6
:10035000019751F783E090E0C498FFEF20E732E087
:10036000F15020403040E1F700C00000C49A4FEF48
:10037000A0E7B2E04150A040B040E1F700C000006B
:10038000019751F783E090E0C498EFEFF2E527E0A2
:10039000E150F0402040E1F700C00000C49A3FEF78
:1003A00042E5A7E031504040A040E1F700C0000026
:1003B000019751F780E092DF811107C0EFE4F3EC81
:1003C0003197F1F700C00000F5CFBC9A0CC0BC9A81
:1003D000C498FFEF23ED30E3F15020403040E1F7C7
:1003E00000C00000C49A88B3856088BB87B38D6065
:1003F00087BBC19A30DEE2E6F0E080E090E039E8C9
:10040000282F87FD2327208347E050E06081262F97
:10041000220F66FD2327208341505109B9F7019629
:100420003196811541E0940759F725DF37DF81E0E8
:1004300055DF8823D9F32091800180916000D22F6D
:10044000D82329F0982F9095892F822301C0822BE1
:100450008093800140E050E0BA018BE50CDE8823F8
:1004600069F06FE070E0CB015ADE6FE070E0CB0125
:1004700056DE6FE070E0CB0152DE2AC08EEFEDDD7C
:1004800002E711E0C0E07801D8018D918D01E5DD32
:10049000EC2FF0E0EE0FFF1FD7018C91E827EE590B
:1004A000FF4FC081B1E001381B0769F78C2F880F1F
:1004B0008F5FD3DD8FEFD1DD8FEFCFDD0FEF1FEF3C
:1004C0008FEFCBDD811104C001501109C9F7C9CFED
:1004D000D2DE909180018091600089238D130CC041
:1004E00063E070E0CB011BDE63E070E0CB0117DE60
:1004F00063E070E0CB0113DED1DE80E0EFDE81113E
:1005000095CFEFE4F3EC3197F1F700C00000F5CFA1
:04051000F894FFCF8D
:020514001000D5
:00000001FF
