:100000008EC0A8C0A7C0A6C0A5C0A4C0A3C0A2C0DF
:10001000A1C0A0C09FC09EC09DC09CC09BC0000945
:10002000121B242D363F48415A536C657E771910B8
:100030000B023D342F265158434A757C676E323B84
:100040002029161F040D7A7368615E574C452B22D8
:1000500039300F061D14636A7178474E555C646D24
:10006000767F4049525B2C253E3708011A137D7478
:100070006F6659504B42353C272E1118030A565FC4
:10008000444D727B60691E170C053A3328214F4698
:100090005D546B627970070E151C232A3138414874
:1000A000535A656C777E09001B122D243F36585138
:1000B0004A437C756E671019020B343D262F737A04
:1000C0006168575E454C3B3229201F160D046A6358
:1000D00078714E475C55222B3039060F141D252CA4
:1000E000373E0108131A6D647F7649405B523C35F8
:1000F0002E2718110A03747D666F5059424B171E44
:10010000050C333A21285F564D447B7269600E0717
:100110001C152A233831464F545D626B70791124C7
:100120001FBECFE5D2E0DEBFCDBF10E0A0E6B0E05D
:10013000EAE9F7E002C005900D92A236B107D9F7BF
:1001400020E0A2E6B0E001C01D92A337B207E1F7BC
:1001500090D121C355CF98E008C0C098C29A880FAB
:10016000B1998160C298915021F087FFF6CFC09A73
:10017000F5CF0895EF92FF920F931F93CF93DF93E4
:10018000182FC42F052FF62EE72E87FD3AC0C39AED
:100190008FEFE1DFC3988FEFDEDF812F8064DBDF3D
:1001A0008E2DD9DF8F2DD7DF802FD5DF8C2FD3DF9A
:1001B000103489F1183419F181E0CDDFCAE08FEFF6
:1001C000CADFD82F87FF02C0C150C9F7113579F0B7
:1001D0001D3469F088EB810F833048F0812F8F7ECA
:1001E0008A3629F01B3519F0C39A8FEFB4DF8D2FB3
:1001F000DF91CF911F910F91FF90EF90089587E8C5
:10020000DCCF40E050E0BA0187E7B4DFD82F82307E
:1002100070F71F77BCCF85E9D0CF909170008091A7
:100220006000892359F4C49A2FEB8AED90E02150A5
:1002300080409040E1F700C000000895C4982FEB83
:100240008AED90E0215080409040E1F700C000002E
:100250000895C49ABC98C49A86B38295817091E03F
:100260008927BC9A2091700090916000922309F038
:10027000C4980895CF93DF93D82FC5E02FEF80E780
:1002800092E0215080409040E1F700C00000E1DFA3
:100290008D1306C0C15091F781E0DF91CF91089591
:1002A00080E0DF91CF910895CF93DF931092720099
:1002B000C39ACAE0D0E08FEF4EDF2197E1F7CAE0A2
:1002C000D0E040E050E0BA0180E454DF813031F00A
:1002D0002197B9F781E0DF91CF9108954AEA51E083
:1002E00060E070E088E446DF813069F040E050E093
:1002F000BA018AE73FDF8130F9F08FEF2CDF80E031
:10030000DF91CF9108958FEF26DF8FEF24DF8FEFFE
:1003100022DF8FEF20DFC0E2DEE402C0219741F050
:1003200040E050E060E070E489EE24DF8111F6CF18
:1003300082E080937200E1CF8FEF0DDF8FEF0BDF54
:100340008FEF09DF8FEF07DFC0E2DEE402C0219705
:1003500039F040E050E0BA0181E40CDF8111F7CFC1
:1003600040E052E060E070E080E504DF81E08093EF
:100370007200C3CFEF92FF920F931F93CF9302E6C9
:1003800010E082E7E82E80E0F82EF801119280E07C
:10039000E237F807D9F740E050E0BA0189E4EADE35
:1003A000C4E602C0C15031F08FEFD5DE8F3FD1F3EC
:1003B0008E3F39F083E0CF911F910F91FF90EF9026
:1003C00008958FEFC8DEF80181938F01EE16FF06C6
:1003D000C1F78FEFC0DE80E0CF911F910F91FF90AA
:1003E000EF90089561DF8823F1F020E280E090E053
:1003F000A0E0B0EA14C0C49A3FEB4AED50E031509F
:1004000040405040E1F700C00000880F991FAA1F2C
:10041000BB1F0097A105B10529F3215019F3B7FFC0
:10042000EACFC498E9CFA6DF882311F120E280E06B
:1004300090E0A0E0B5EA14C0C49A3FEB4AED50E06A
:10044000315040405040E1F700C00000880F991F34
:10045000AA1FBB1F0097A105B10531F0215021F063
:10046000B7FFEACFC498E9CF85DF8111DFCF0895C8
:100470000895EFDE813009F42FC1BC9AC4989FEF34
:10048000A3EDB0E39150A040B040E1F700C0000000
:10049000C49A88B3856088BB87B38D6087BBC19AD7
:1004A000C39AA0DFBADED5DE8130E1F7E3DE882330
:1004B000C9F32091700080916000C22FC82309F415
:1004C0009BC0982F9095892F82238093700040E0E5
:1004D00050E0BA018BE54EDE882309F497C020E294
:1004E0008FE090E0DC0114C0C49AEFEBFAED30E04D
:1004F000E150F0403040E1F700C00000880F991F44
:10050000AA1FBB1F0097A105B10531F0215021F0B2
:10051000B7FFEACFC498E9CF20E28FE090E0DC019A
:1005200014C0C49A4FEB5AEDE0E041505040E04017
:10053000E1F700C00000880F991FAA1FBB1F00979A
:10054000A105B10531F0215021F0B7FFEACFC498E1
:10055000E9CF20E28FE090E0DC0114C0C49AFFEB09
:100560003AED40E0F15030404040E1F700C000007B
:10057000880F991FAA1FBB1F0097A105B10531F075
:10058000215021F0B7FFEACFC498E9CF2BDF90913B
:1005900070008091600089238C1781F03EDE06C0D8
:1005A0008FE493EC0197F1F700C0000052DE811157
:1005B000F7CF80E05FDE882399F374CF20E283E0F9
:1005C00090E0DC0115C0C49A5FEBEAEDF0E0515019
:1005D000E040F040E1F700C00000880F991FAA1F1B
:1005E000BB1F0097A105B10509F43AC02150C1F124
:1005F000B7FFE9CFC498E8CF822B8093700040E02A
:1006000050E0BA018BE5B6DD811169CF8EEFA3DD35
:1006100002E610E0D0E07801F80181918F019BDDC6
:10062000ED2FF0E0EE0FFF1FD7018C91E827E25E7F
:10063000FF4FD081B0E001371B0769F78D2F880F7E
:100640008F5F89DD8FEF87DD8FEF85DD0FEF1FEF88
:100650008FEF81DD81119ACF01501109C9F73FCF8A
:1006600020E283E090E0DC0114C0C49A3FEB4AED45
:1006700050E0315040405040E1F700C00000880F8A
:10068000991FAA1FBB1F0097A105B10531F021508A
:1006900021F0B7FFEACFC498E9CF20E283E090E0F1
:1006A000DC0116C0C49AEFEBFAED30E0E150F04007
:1006B0003040E1F700C00000880F991FAA1FBB1F40
:1006C0000097A105B10509F469CF215009F466CF5F
:1006D000B7FFE8CFC498E7CFCDDD882309F4CDCEAE
:1006E00080E28093600083E090E0C4982FEF32E5D1
:1006F00047E0215030404040E1F700C00000C49A7C
:100700005FEFA2E5B7E05150A040B040E1F700C074
:100710000000019751F783E090E0C498EFEFF0E715
:1007200022E0E150F0402040E1F700C00000C49A10
:100730003FEF40E752E0315040405040E1F700C009
:100740000000019751F783E090E0C498AFEFB2E565
:10075000E7E0A150B040E040E1F700C00000C49ADB
:10076000FFEF22E537E0F15020403040E1F700C0D4
:100770000000019751F76DDD882339F08FE493EC89
:100780000197F1F700C00000F6CF80E073DD882309
:0A079000A9F3BC9A7ECEF894FFCFC7
:02079A0010004D
:00000001FF
